{
  "_format": "hh-sol-artifact-1",
  "contractName": "AccessNFTs",
  "sourceName": "contracts/AccessNFTs.sol",
  "abi": [
    {
      "inputs": [
        {
          "internalType": "address",
          "name": "_owner",
          "type": "address"
        }
      ],
      "stateMutability": "nonpayable",
      "type": "constructor"
    },
    {
      "anonymous": false,
      "inputs": [
        {
          "indexed": true,
          "internalType": "address",
          "name": "owner",
          "type": "address"
        },
        {
          "indexed": true,
          "internalType": "address",
          "name": "approved",
          "type": "address"
        },
        {
          "indexed": true,
          "internalType": "uint256",
          "name": "tokenId",
          "type": "uint256"
        }
      ],
      "name": "Approval",
      "type": "event"
    },
    {
      "anonymous": false,
      "inputs": [
        {
          "indexed": true,
          "internalType": "address",
          "name": "owner",
          "type": "address"
        },
        {
          "indexed": true,
          "internalType": "address",
          "name": "operator",
          "type": "address"
        },
        {
          "indexed": false,
          "internalType": "bool",
          "name": "approved",
          "type": "bool"
        }
      ],
      "name": "ApprovalForAll",
      "type": "event"
    },
    {
      "anonymous": false,
      "inputs": [
        {
          "indexed": true,
          "internalType": "address",
          "name": "previousOwner",
          "type": "address"
        },
        {
          "indexed": true,
          "internalType": "address",
          "name": "newOwner",
          "type": "address"
        }
      ],
      "name": "OwnershipTransferred",
      "type": "event"
    },
    {
      "anonymous": false,
      "inputs": [
        {
          "indexed": true,
          "internalType": "address",
          "name": "from",
          "type": "address"
        },
        {
          "indexed": true,
          "internalType": "address",
          "name": "to",
          "type": "address"
        },
        {
          "indexed": true,
          "internalType": "uint256",
          "name": "tokenId",
          "type": "uint256"
        }
      ],
      "name": "Transfer",
      "type": "event"
    },
    {
      "inputs": [
        {
          "internalType": "address",
          "name": "to",
          "type": "address"
        },
        {
          "internalType": "uint256",
          "name": "tokenId",
          "type": "uint256"
        }
      ],
      "name": "approve",
      "outputs": [],
      "stateMutability": "nonpayable",
      "type": "function"
    },
    {
      "inputs": [
        {
          "internalType": "address",
          "name": "owner",
          "type": "address"
        }
      ],
      "name": "balanceOf",
      "outputs": [
        {
          "internalType": "uint256",
          "name": "",
          "type": "uint256"
        }
      ],
      "stateMutability": "view",
      "type": "function"
    },
    {
      "inputs": [
        {
          "internalType": "uint256",
          "name": "tokenId",
          "type": "uint256"
        }
      ],
      "name": "getApproved",
      "outputs": [
        {
          "internalType": "address",
          "name": "",
          "type": "address"
        }
      ],
      "stateMutability": "view",
      "type": "function"
    },
    {
      "inputs": [
        {
          "internalType": "address",
          "name": "_user",
          "type": "address"
        }
      ],
      "name": "getRange",
      "outputs": [
        {
          "internalType": "string",
          "name": "",
          "type": "string"
        }
      ],
      "stateMutability": "view",
      "type": "function"
    },
    {
      "inputs": [
        {
          "internalType": "address",
          "name": "_user",
          "type": "address"
        }
      ],
      "name": "getType",
      "outputs": [
        {
          "internalType": "string",
          "name": "",
          "type": "string"
        }
      ],
      "stateMutability": "view",
      "type": "function"
    },
    {
      "inputs": [
        {
          "internalType": "address",
          "name": "owner",
          "type": "address"
        },
        {
          "internalType": "address",
          "name": "operator",
          "type": "address"
        }
      ],
      "name": "isApprovedForAll",
      "outputs": [
        {
          "internalType": "bool",
          "name": "",
          "type": "bool"
        }
      ],
      "stateMutability": "view",
      "type": "function"
    },
    {
      "inputs": [
        {
          "internalType": "address",
          "name": "_user",
          "type": "address"
        },
        {
          "internalType": "string",
          "name": "_type",
          "type": "string"
        },
        {
          "internalType": "string",
          "name": "_range",
          "type": "string"
        }
      ],
      "name": "mint",
      "outputs": [],
      "stateMutability": "nonpayable",
      "type": "function"
    },
    {
      "inputs": [],
      "name": "name",
      "outputs": [
        {
          "internalType": "string",
          "name": "",
          "type": "string"
        }
      ],
      "stateMutability": "view",
      "type": "function"
    },
    {
      "inputs": [],
      "name": "owner",
      "outputs": [
        {
          "internalType": "address",
          "name": "",
          "type": "address"
        }
      ],
      "stateMutability": "view",
      "type": "function"
    },
    {
      "inputs": [
        {
          "internalType": "uint256",
          "name": "tokenId",
          "type": "uint256"
        }
      ],
      "name": "ownerOf",
      "outputs": [
        {
          "internalType": "address",
          "name": "",
          "type": "address"
        }
      ],
      "stateMutability": "view",
      "type": "function"
    },
    {
      "inputs": [],
      "name": "renounceOwnership",
      "outputs": [],
      "stateMutability": "nonpayable",
      "type": "function"
    },
    {
      "inputs": [
        {
          "internalType": "address",
          "name": "from",
          "type": "address"
        },
        {
          "internalType": "address",
          "name": "to",
          "type": "address"
        },
        {
          "internalType": "uint256",
          "name": "tokenId",
          "type": "uint256"
        }
      ],
      "name": "safeTransferFrom",
      "outputs": [],
      "stateMutability": "nonpayable",
      "type": "function"
    },
    {
      "inputs": [
        {
          "internalType": "address",
          "name": "from",
          "type": "address"
        },
        {
          "internalType": "address",
          "name": "to",
          "type": "address"
        },
        {
          "internalType": "uint256",
          "name": "tokenId",
          "type": "uint256"
        },
        {
          "internalType": "bytes",
          "name": "data",
          "type": "bytes"
        }
      ],
      "name": "safeTransferFrom",
      "outputs": [],
      "stateMutability": "nonpayable",
      "type": "function"
    },
    {
      "inputs": [
        {
          "internalType": "address",
          "name": "operator",
          "type": "address"
        },
        {
          "internalType": "bool",
          "name": "approved",
          "type": "bool"
        }
      ],
      "name": "setApprovalForAll",
      "outputs": [],
      "stateMutability": "nonpayable",
      "type": "function"
    },
    {
      "inputs": [
        {
          "internalType": "bytes4",
          "name": "interfaceId",
          "type": "bytes4"
        }
      ],
      "name": "supportsInterface",
      "outputs": [
        {
          "internalType": "bool",
          "name": "",
          "type": "bool"
        }
      ],
      "stateMutability": "view",
      "type": "function"
    },
    {
      "inputs": [],
      "name": "symbol",
      "outputs": [
        {
          "internalType": "string",
          "name": "",
          "type": "string"
        }
      ],
      "stateMutability": "view",
      "type": "function"
    },
    {
      "inputs": [
        {
          "internalType": "uint256",
          "name": "index",
          "type": "uint256"
        }
      ],
      "name": "tokenByIndex",
      "outputs": [
        {
          "internalType": "uint256",
          "name": "",
          "type": "uint256"
        }
      ],
      "stateMutability": "view",
      "type": "function"
    },
    {
      "inputs": [
        {
          "internalType": "address",
          "name": "owner",
          "type": "address"
        },
        {
          "internalType": "uint256",
          "name": "index",
          "type": "uint256"
        }
      ],
      "name": "tokenOfOwnerByIndex",
      "outputs": [
        {
          "internalType": "uint256",
          "name": "",
          "type": "uint256"
        }
      ],
      "stateMutability": "view",
      "type": "function"
    },
    {
      "inputs": [
        {
          "internalType": "uint256",
          "name": "tokenId",
          "type": "uint256"
        }
      ],
      "name": "tokenURI",
      "outputs": [
        {
          "internalType": "string",
          "name": "",
          "type": "string"
        }
      ],
      "stateMutability": "view",
      "type": "function"
    },
    {
      "inputs": [],
      "name": "totalSupply",
      "outputs": [
        {
          "internalType": "uint256",
          "name": "",
          "type": "uint256"
        }
      ],
      "stateMutability": "view",
      "type": "function"
    },
    {
      "inputs": [
        {
          "internalType": "address",
          "name": "from",
          "type": "address"
        },
        {
          "internalType": "address",
          "name": "to",
          "type": "address"
        },
        {
          "internalType": "uint256",
          "name": "tokenId",
          "type": "uint256"
        }
      ],
      "name": "transferFrom",
      "outputs": [],
      "stateMutability": "nonpayable",
      "type": "function"
    },
    {
      "inputs": [
        {
          "internalType": "address",
          "name": "newOwner",
          "type": "address"
        }
      ],
      "name": "transferOwnership",
      "outputs": [],
      "stateMutability": "nonpayable",
      "type": "function"
    }
  ],
  "bytecode": "0x60806040523480156200001157600080fd5b5060405162002110380380620021108339810160408190526200003491620002a5565b604080518082018252600a8152694163636573734e46547360b01b602080830191825283518085019094526005845264414e46547360d81b9084015281519192916200008391600091620001ff565b50805162000099906001906020840190620001ff565b505050620000b6620000b0620000c860201b60201c565b620000cc565b620000c1816200011e565b5062000314565b3390565b600a80546001600160a01b038381166001600160a01b0319831681179093556040519116919082907f8be0079c531659141344cd1fd0a4f28419497f9722a3daafe3b4186f6b6457e090600090a35050565b62000128620001a1565b6001600160a01b038116620001935760405162461bcd60e51b815260206004820152602660248201527f4f776e61626c653a206e6577206f776e657220697320746865207a65726f206160448201526564647265737360d01b60648201526084015b60405180910390fd5b6200019e81620000cc565b50565b600a546001600160a01b03163314620001fd5760405162461bcd60e51b815260206004820181905260248201527f4f776e61626c653a2063616c6c6572206973206e6f7420746865206f776e657260448201526064016200018a565b565b8280546200020d90620002d7565b90600052602060002090601f0160209004810192826200023157600085556200027c565b82601f106200024c57805160ff19168380011785556200027c565b828001600101855582156200027c579182015b828111156200027c5782518255916020019190600101906200025f565b506200028a9291506200028e565b5090565b5b808211156200028a57600081556001016200028f565b600060208284031215620002b857600080fd5b81516001600160a01b0381168114620002d057600080fd5b9392505050565b600181811c90821680620002ec57607f821691505b602082108114156200030e57634e487b7160e01b600052602260045260246000fd5b50919050565b611dec80620003246000396000f3fe608060405234801561001057600080fd5b50600436106101825760003560e01c806370a08231116100d8578063a22cb4651161008c578063e985e9c511610066578063e985e9c514610308578063f2fde38b14610344578063f429f19b1461035757600080fd5b8063a22cb465146102cf578063b88d4fde146102e2578063c87b56dd146102f557600080fd5b80638da5cb5b116100bd5780638da5cb5b146102a357806395d89b41146102b457806399071190146102bc57600080fd5b806370a0823114610288578063715018a61461029b57600080fd5b806323b872dd1161013a5780634f6ccce7116101145780634f6ccce71461024f5780635521c653146102625780636352211e1461027557600080fd5b806323b872dd146102165780632f745c591461022957806342842e0e1461023c57600080fd5b8063081812fc1161016b578063081812fc146101c4578063095ea7b3146101ef57806318160ddd1461020457600080fd5b806301ffc9a71461018757806306fdde03146101af575b600080fd5b61019a6101953660046118e0565b61036a565b60405190151581526020015b60405180910390f35b6101b76103ae565b6040516101a69190611955565b6101d76101d2366004611968565b610440565b6040516001600160a01b0390911681526020016101a6565b6102026101fd36600461199d565b610467565b005b6008545b6040519081526020016101a6565b6102026102243660046119c7565b61059e565b61020861023736600461199d565b610625565b61020261024a3660046119c7565b6106cd565b61020861025d366004611968565b6106e8565b6101b7610270366004611a03565b61078c565b6101d7610283366004611968565b610838565b610208610296366004611a03565b61089d565b610202610937565b600a546001600160a01b03166101d7565b6101b761094b565b6102026102ca366004611aca565b61095a565b6102026102dd366004611b3e565b6109c6565b6102026102f0366004611b7a565b6109d5565b6101b7610303366004611968565b610a5d565b61019a610316366004611bf6565b6001600160a01b03918216600090815260056020908152604080832093909416825291909152205460ff1690565b610202610352366004611a03565b610ad1565b6101b7610365366004611a03565b610b61565b60006001600160e01b031982167f780e9d630000000000000000000000000000000000000000000000000000000014806103a857506103a882610b88565b92915050565b6060600080546103bd90611c29565b80601f01602080910402602001604051908101604052809291908181526020018280546103e990611c29565b80156104365780601f1061040b57610100808354040283529160200191610436565b820191906000526020600020905b81548152906001019060200180831161041957829003601f168201915b5050505050905090565b600061044b82610c23565b506000908152600460205260409020546001600160a01b031690565b600061047282610838565b9050806001600160a01b0316836001600160a01b031614156105015760405162461bcd60e51b815260206004820152602160248201527f4552433732313a20617070726f76616c20746f2063757272656e74206f776e6560448201527f720000000000000000000000000000000000000000000000000000000000000060648201526084015b60405180910390fd5b336001600160a01b038216148061051d575061051d8133610316565b61058f5760405162461bcd60e51b815260206004820152603e60248201527f4552433732313a20617070726f76652063616c6c6572206973206e6f7420746f60448201527f6b656e206f776e6572206e6f7220617070726f76656420666f7220616c6c000060648201526084016104f8565b6105998383610c87565b505050565b6105a83382610d02565b61061a5760405162461bcd60e51b815260206004820152602e60248201527f4552433732313a2063616c6c6572206973206e6f7420746f6b656e206f776e6560448201527f72206e6f7220617070726f76656400000000000000000000000000000000000060648201526084016104f8565b610599838383610d81565b60006106308361089d565b82106106a45760405162461bcd60e51b815260206004820152602b60248201527f455243373231456e756d657261626c653a206f776e657220696e646578206f7560448201527f74206f6620626f756e647300000000000000000000000000000000000000000060648201526084016104f8565b506001600160a01b03919091166000908152600660209081526040808320938352929052205490565b610599838383604051806020016040528060008152506109d5565b60006106f360085490565b82106107675760405162461bcd60e51b815260206004820152602c60248201527f455243373231456e756d657261626c653a20676c6f62616c20696e646578206f60448201527f7574206f6620626f756e6473000000000000000000000000000000000000000060648201526084016104f8565b6008828154811061077a5761077a611c64565b90600052602060002001549050919050565b6001600160a01b0381166000908152600c602052604090208054606091906107b390611c29565b80601f01602080910402602001604051908101604052809291908181526020018280546107df90611c29565b801561082c5780601f106108015761010080835404028352916020019161082c565b820191906000526020600020905b81548152906001019060200180831161080f57829003601f168201915b50505050509050919050565b6000818152600260205260408120546001600160a01b0316806103a85760405162461bcd60e51b815260206004820152601860248201527f4552433732313a20696e76616c696420746f6b656e204944000000000000000060448201526064016104f8565b60006001600160a01b03821661091b5760405162461bcd60e51b815260206004820152602960248201527f4552433732313a2061646472657373207a65726f206973206e6f74206120766160448201527f6c6964206f776e6572000000000000000000000000000000000000000000000060648201526084016104f8565b506001600160a01b031660009081526003602052604090205490565b61093f610f66565b6109496000610fc0565b565b6060600180546103bd90611c29565b610962610f66565b61096d83600161101f565b6001600160a01b0383166000908152600b60209081526040909120835161099692850190611831565b506001600160a01b0383166000908152600c6020908152604090912082516109c092840190611831565b50505050565b6109d1338383611039565b5050565b6109df3383610d02565b610a515760405162461bcd60e51b815260206004820152602e60248201527f4552433732313a2063616c6c6572206973206e6f7420746f6b656e206f776e6560448201527f72206e6f7220617070726f76656400000000000000000000000000000000000060648201526084016104f8565b6109c084848484611108565b6060610a6882610c23565b6000610a7f60408051602081019091526000815290565b90506000815111610a9f5760405180602001604052806000815250610aca565b80610aa984611186565b604051602001610aba929190611c7a565b6040516020818303038152906040525b9392505050565b610ad9610f66565b6001600160a01b038116610b555760405162461bcd60e51b815260206004820152602660248201527f4f776e61626c653a206e6577206f776e657220697320746865207a65726f206160448201527f646472657373000000000000000000000000000000000000000000000000000060648201526084016104f8565b610b5e81610fc0565b50565b6001600160a01b0381166000908152600b602052604090208054606091906107b390611c29565b60006001600160e01b031982167f80ac58cd000000000000000000000000000000000000000000000000000000001480610beb57506001600160e01b031982167f5b5e139f00000000000000000000000000000000000000000000000000000000145b806103a857507f01ffc9a7000000000000000000000000000000000000000000000000000000006001600160e01b03198316146103a8565b6000818152600260205260409020546001600160a01b0316610b5e5760405162461bcd60e51b815260206004820152601860248201527f4552433732313a20696e76616c696420746f6b656e204944000000000000000060448201526064016104f8565b6000818152600460205260409020805473ffffffffffffffffffffffffffffffffffffffff19166001600160a01b0384169081179091558190610cc982610838565b6001600160a01b03167f8c5be1e5ebec7d5bd14f71427d1e84f3dd0314c0f7b2291e5b200ac8c7c3b92560405160405180910390a45050565b600080610d0e83610838565b9050806001600160a01b0316846001600160a01b03161480610d5557506001600160a01b0380821660009081526005602090815260408083209388168352929052205460ff165b80610d795750836001600160a01b0316610d6e84610440565b6001600160a01b0316145b949350505050565b826001600160a01b0316610d9482610838565b6001600160a01b031614610e105760405162461bcd60e51b815260206004820152602560248201527f4552433732313a207472616e736665722066726f6d20696e636f72726563742060448201527f6f776e657200000000000000000000000000000000000000000000000000000060648201526084016104f8565b6001600160a01b038216610e8b5760405162461bcd60e51b8152602060048201526024808201527f4552433732313a207472616e7366657220746f20746865207a65726f2061646460448201527f726573730000000000000000000000000000000000000000000000000000000060648201526084016104f8565b610e968383836112b8565b610ea1600082610c87565b6001600160a01b0383166000908152600360205260408120805460019290610eca908490611cbf565b90915550506001600160a01b0382166000908152600360205260408120805460019290610ef8908490611cd6565b9091555050600081815260026020526040808220805473ffffffffffffffffffffffffffffffffffffffff19166001600160a01b0386811691821790925591518493918716917fddf252ad1be2c89b69c2b068fc378daa952ba7f163c4a11628f55a4df523b3ef91a4505050565b600a546001600160a01b031633146109495760405162461bcd60e51b815260206004820181905260248201527f4f776e61626c653a2063616c6c6572206973206e6f7420746865206f776e657260448201526064016104f8565b600a80546001600160a01b0383811673ffffffffffffffffffffffffffffffffffffffff19831681179093556040519116919082907f8be0079c531659141344cd1fd0a4f28419497f9722a3daafe3b4186f6b6457e090600090a35050565b6109d1828260405180602001604052806000815250611370565b816001600160a01b0316836001600160a01b0316141561109b5760405162461bcd60e51b815260206004820152601960248201527f4552433732313a20617070726f766520746f2063616c6c65720000000000000060448201526064016104f8565b6001600160a01b03838116600081815260056020908152604080832094871680845294825291829020805460ff191686151590811790915591519182527f17307eab39ab6107e8899845ad3d59bd9653f200f220920489ca2b5937696c31910160405180910390a3505050565b611113848484610d81565b61111f848484846113ee565b6109c05760405162461bcd60e51b815260206004820152603260248201527f4552433732313a207472616e7366657220746f206e6f6e20455243373231526560448201527131b2b4bb32b91034b6b83632b6b2b73a32b960711b60648201526084016104f8565b6060816111c657505060408051808201909152600181527f3000000000000000000000000000000000000000000000000000000000000000602082015290565b8160005b81156111f057806111da81611cee565b91506111e99050600a83611d1f565b91506111ca565b60008167ffffffffffffffff81111561120b5761120b611a1e565b6040519080825280601f01601f191660200182016040528015611235576020820181803683370190505b5090505b8415610d795761124a600183611cbf565b9150611257600a86611d33565b611262906030611cd6565b60f81b81838151811061127757611277611c64565b60200101907effffffffffffffffffffffffffffffffffffffffffffffffffffffffffffff1916908160001a9053506112b1600a86611d1f565b9450611239565b6001600160a01b0383166113135761130e81600880546000838152600960205260408120829055600182018355919091527ff3f7a9fe364faab93b216da50a3214154f22a0a2b415b23a84c8169e8b636ee30155565b611336565b816001600160a01b0316836001600160a01b031614611336576113368382611546565b6001600160a01b03821661134d57610599816115e3565b826001600160a01b0316826001600160a01b031614610599576105998282611692565b61137a83836116d6565b61138760008484846113ee565b6105995760405162461bcd60e51b815260206004820152603260248201527f4552433732313a207472616e7366657220746f206e6f6e20455243373231526560448201527131b2b4bb32b91034b6b83632b6b2b73a32b960711b60648201526084016104f8565b60006001600160a01b0384163b1561153b57604051630a85bd0160e11b81526001600160a01b0385169063150b7a0290611432903390899088908890600401611d47565b602060405180830381600087803b15801561144c57600080fd5b505af192505050801561147c575060408051601f3d908101601f1916820190925261147991810190611d83565b60015b611521573d8080156114aa576040519150601f19603f3d011682016040523d82523d6000602084013e6114af565b606091505b5080516115195760405162461bcd60e51b815260206004820152603260248201527f4552433732313a207472616e7366657220746f206e6f6e20455243373231526560448201527131b2b4bb32b91034b6b83632b6b2b73a32b960711b60648201526084016104f8565b805181602001fd5b6001600160e01b031916630a85bd0160e11b149050610d79565b506001949350505050565b600060016115538461089d565b61155d9190611cbf565b6000838152600760205260409020549091508082146115b0576001600160a01b03841660009081526006602090815260408083208584528252808320548484528184208190558352600790915290208190555b5060009182526007602090815260408084208490556001600160a01b039094168352600681528383209183525290812055565b6008546000906115f590600190611cbf565b6000838152600960205260408120546008805493945090928490811061161d5761161d611c64565b90600052602060002001549050806008838154811061163e5761163e611c64565b600091825260208083209091019290925582815260099091526040808220849055858252812055600880548061167657611676611da0565b6001900381819060005260206000200160009055905550505050565b600061169d8361089d565b6001600160a01b039093166000908152600660209081526040808320868452825280832085905593825260079052919091209190915550565b6001600160a01b03821661172c5760405162461bcd60e51b815260206004820181905260248201527f4552433732313a206d696e7420746f20746865207a65726f206164647265737360448201526064016104f8565b6000818152600260205260409020546001600160a01b0316156117915760405162461bcd60e51b815260206004820152601c60248201527f4552433732313a20746f6b656e20616c7265616479206d696e7465640000000060448201526064016104f8565b61179d600083836112b8565b6001600160a01b03821660009081526003602052604081208054600192906117c6908490611cd6565b9091555050600081815260026020526040808220805473ffffffffffffffffffffffffffffffffffffffff19166001600160a01b03861690811790915590518392907fddf252ad1be2c89b69c2b068fc378daa952ba7f163c4a11628f55a4df523b3ef908290a45050565b82805461183d90611c29565b90600052602060002090601f01602090048101928261185f57600085556118a5565b82601f1061187857805160ff19168380011785556118a5565b828001600101855582156118a5579182015b828111156118a557825182559160200191906001019061188a565b506118b19291506118b5565b5090565b5b808211156118b157600081556001016118b6565b6001600160e01b031981168114610b5e57600080fd5b6000602082840312156118f257600080fd5b8135610aca816118ca565b60005b83811015611918578181015183820152602001611900565b838111156109c05750506000910152565b600081518084526119418160208601602086016118fd565b601f01601f19169290920160200192915050565b602081526000610aca6020830184611929565b60006020828403121561197a57600080fd5b5035919050565b80356001600160a01b038116811461199857600080fd5b919050565b600080604083850312156119b057600080fd5b6119b983611981565b946020939093013593505050565b6000806000606084860312156119dc57600080fd5b6119e584611981565b92506119f360208501611981565b9150604084013590509250925092565b600060208284031215611a1557600080fd5b610aca82611981565b634e487b7160e01b600052604160045260246000fd5b600067ffffffffffffffff80841115611a4f57611a4f611a1e565b604051601f8501601f19908116603f01168101908282118183101715611a7757611a77611a1e565b81604052809350858152868686011115611a9057600080fd5b858560208301376000602087830101525050509392505050565b600082601f830112611abb57600080fd5b610aca83833560208501611a34565b600080600060608486031215611adf57600080fd5b611ae884611981565b9250602084013567ffffffffffffffff80821115611b0557600080fd5b611b1187838801611aaa565b93506040860135915080821115611b2757600080fd5b50611b3486828701611aaa565b9150509250925092565b60008060408385031215611b5157600080fd5b611b5a83611981565b915060208301358015158114611b6f57600080fd5b809150509250929050565b60008060008060808587031215611b9057600080fd5b611b9985611981565b9350611ba760208601611981565b925060408501359150606085013567ffffffffffffffff811115611bca57600080fd5b8501601f81018713611bdb57600080fd5b611bea87823560208401611a34565b91505092959194509250565b60008060408385031215611c0957600080fd5b611c1283611981565b9150611c2060208401611981565b90509250929050565b600181811c90821680611c3d57607f821691505b60208210811415611c5e57634e487b7160e01b600052602260045260246000fd5b50919050565b634e487b7160e01b600052603260045260246000fd5b60008351611c8c8184602088016118fd565b835190830190611ca08183602088016118fd565b01949350505050565b634e487b7160e01b600052601160045260246000fd5b600082821015611cd157611cd1611ca9565b500390565b60008219821115611ce957611ce9611ca9565b500190565b6000600019821415611d0257611d02611ca9565b5060010190565b634e487b7160e01b600052601260045260246000fd5b600082611d2e57611d2e611d09565b500490565b600082611d4257611d42611d09565b500690565b60006001600160a01b03808716835280861660208401525083604083015260806060830152611d796080830184611929565b9695505050505050565b600060208284031215611d9557600080fd5b8151610aca816118ca565b634e487b7160e01b600052603160045260246000fdfea264697066735822122057396c61f5f44c1e8894bc9a03e1937793752a024719bd5c1c2c2dd083f8b3b364736f6c63430008090033",
  "linkReferences": {},
  "deployedLinkReferences": {}
}